:020000040800F2
:10000000A08B0024A503000855EA000823A80008D7
:1000100079E70008AF070008A934010800000000D4
:10002000000000000000000000000000E5020008E1
:100030004F2600080000000041030008C9F800082E
:10004000C3030008C3030008C3030008C303000878
:10005000C3030008C303000851260008C3030008B7
:1000600067260008C3030008C3030008811A0008BC
:10007000C3030008911A0008C3030008C303000863
:10008000C3030008C3030008C3030008A92600082F
:10009000C9260008B9260008D926000871260008DC
:1000A000C3030008A9FA0008C3030008C30300083B
:1000B000B9FA0008C3030008C3030008C30300081B
:1000C000C3030008C3030008C3030008C3030008F8
:1000D000C3030008350A0108C3030008C30300086E
:1000E0005B260008C303000800000000C9FA0008EE
:1000F000C3030008C3030008C3030008C3030008C8
:10010000C3030008C3030008C3030008C3030008B7
:10011000C30300085D000108C3030008C30300080F
:10012000C3030008C3030008C3030008C303000897
:10013000C3030008C3030008C3030008C303000887
:1001400000000000000000000000000000000000AF
:10015000C3030008C3030008C3030008C303000867
:10016000C3030008C3030008C3030008C303000857
:10017000C303000859EA0008C30300080000000098
:10018000C3030008C3030008C30300086D0001088F
:10019000C3030008C303000855F60008C3030008A2
:1001A000C3030008C3030008C303000800000000E5
:1001B000C3030008C3030008C3030008C303000807
:1001C000C3030008C3030008000000000000000093
:1001D0000000000000000000C30300080000000051
:1001E000000000000000000000000000000000000F
:1001F0000000000000000000C3030008C303000863
:10020000C3030008C303000800000000C303000884
:10021000C3030008C3030008C3030008C3030008A6
:10022000C303000800000000C30300080000000032
:10023000C3030008C303000800000000C303000854
:10024000C303000821070008C3030008C303000814
:10025000C3030008C3030008C3030008C303000866
:10026000C3030008C3030008C3030008C303000856
:10027000C3030008C3030008C30300080000000014
:10028000C3030008C3030008C3030008C303000836
:1002900000000000C3030008C303000800000000C2
:1002A00000000000C3030008C3030008C3030008E4
:1002B000C3030008C3030008C3030008E9260008BD
:1002C000F9260008C3030008C3030008DFF810D0B4
:1002D00000F054F900480047DD6B0108AFF30080DF
:1002E000A08B00242C4B19680868B0E8F04F80F30D
:1002F0000988BFF36F8F4FF0000080F311887047BB
:100300000000000008480068006880F308884FF08B
:10031000000080F3148862B661B6BFF34F8FBFF35D
:100320006F8F00DF00BF00BF08ED00E0DFF80C00BA
:10033000016841F470010160704700BF88ED00E082
:10034000EFF30980BFF36F8F134B1A681EF0100F85
:1003500008BF20ED108A20E9F04F106009B44FF07B
:10036000500080F31188BFF34F8FBFF36F8F17F0EA
:100370009FFE4FF0000080F3118809BC19680868DF
:10038000B0E8F04F1EF0100F08BFB0EC108A80F3F9
:100390000988BFF36F8F704724000024EFF30580B6
:1003A00070470000074880470748804707480047D4
:1003B000FEE7FEE7FEE7FEE7FEE7FEE7FEE7FEE715
:1003C000FEE7FEE7852600089DF90008CD0200083B
:1003D0002DE9F05F0546002092469B46884606467A
:1003E000814640241BE0284641464746224600F00D
:1003F00053F853465A46C01A914110D31146184635
:10040000224600F03AF82D1A67EB01084F462246C3
:100410000120002100F031F817EB00094E41201EA9
:10042000A4F10104DFDC484631462A464346BDE8D4
:10043000F09F40EA01039B0703D009E008C9121F9F
:1004400008C0042AFAD203E011F8013B00F8013B8E
:10045000521EF9D27047D2B201E000F8012B491EBA
:10046000FBD270470022F6E710B513460A46044651
:100470001946FFF7F0FF204610BD202A04DB203A82
:1004800000FA02F1002070479140C2F1200320FAE7
:1004900003F3194390407047202A04DB203A21FAE5
:1004A00002F00021704721FA02F3D040C2F120028D
:1004B000914008431946704710B541000CD0C0F375
:1004C000C751962908DC7E2909DC06DB410204D0ED
:1004D00000F0004040F07E5010BD002010BDC1F182
:1004E0009604C4F1200100FA01F1E04000F058F850
:1004F000A04010BD2DE9FE4FC3F30A5701F000459F
:100500000024C1F30A56C3F31303C1F3130143F4E8
:10051000801312EB020AA64641F48011009543EBCA
:10052000030CA7F1010B16E0B0EB0A0061EB0C0124
:10053000071E71F1000707DA4FF00008D0EB080042
:1005400085F0004568EB0101171A73EB0107EBD347
:10055000761E001849415E45F6DA50EA010209D0DC
:10056000CDE900E500221346029600F05FF803B0E3
:10057000BDE8F08F20460099F9E70000064C074DD2
:1005800006E0E06840F0010394E807009847103463
:10059000AC42F6D3FFF79EFE1C8E01083C8E01088C
:1005A0000029A8BF7047401C490008BF20F0010087
:1005B000704710B4B0FA80FC00FA0CF050EA010465
:1005C00004BF10BC704749B1CCF1200421FA04F4F7
:1005D00011FA0CF118BF012121430843A3EB0C01D0
:1005E000CB1D4FEA00614FEA102042BF002010BC33
:1005F000704700EBC35010440029A4BF10BC7047E3
:10060000401C490008BF20F0010010BC704710B525
:10061000141E73F1000408DA401C41F10001921825
:100620005B411A4301D120F0010010BD2DE9F04DCE
:1006300092469B4611B1B1FA81F202E0B0FA80F223
:1006400020329046FFF719FF04460F4640EA0A00A1
:1006500041EA0B0153465A46084313D0114653EA68
:10066000010019D0C8F140025046FFF715FF0546BA
:100670000E46504659464246FFF7FFFE084305D056
:10068000012004E020463946BDE8F08D00200543F6
:1006900046EAE0762C4337430A986305E40AA0EB68
:1006A00008000022FD0A44EA47540A3002D500201F
:1006B0000146E9E7010510196941DDE9084500191E
:1006C0006941BDE8F04DA2E770B58C1810F8015BE8
:1006D00015F0070301D110F8013B2A1106D110F8DB
:1006E000012B03E010F8016B01F8016B5B1EF9D1DF
:1006F0002B0705D40023521E0DD401F8013BFAE765
:1007000010F8013BCB1A921C03E013F8015B01F8CF
:10071000015B521EF9D5A142D8D3002070BD000064
:1007200010B5024802F04CFF10BD0000C0060024C6
:1007300010B50649064800F0B5F80649064800F02D
:10074000B1F80649064800F0ADF810BD9C530024EE
:1007500058040024BC530024F8040024DC53002473
:100760009805002408B5242000900548006800F191
:100770002401044BA3F13202014810F063F908BDD3
:10078000D00700245E6200240021416001214170F5
:10079000704701464878704701214170002141604F
:1007A000704702214170704701214170704700BFBE
:1007B000FEE70346042B15D007DC7BB1012B0ED0DE
:1007C000022B0DD0032B12D10BE0202B0BD0212BB1
:1007D0000AD0222B09D0232B09D107E008E007E03B
:1007E00006E005E004E003E002E001E000E000BF15
:1007F00000BF0020704700207047000010B50022A5
:100800000449054810F0DBFB0449034810F0C8FB1D
:10081000002010BD9C780024806B00249C70002474
:1008200070B505460C46294609482268FFF701FEC7
:1008300008492068086001200749087029460748D0
:1008400010F0AEFB054810F077FB002070BD0000F3
:100850005C700024AC030024A8030024806B0024F7
:1008600010B503460C460021084610BD2DE9F041A5
:1008700004460D4600260A48D0F8BC72D7F8140288
:1008800010B10120BDE8F0812A462146044810F04D
:1008900096FB034810F046FC06463046F2E700009F
:1008A000806B002438B505460C460020206060604F
:1008B0000220A0600120E0600020206160612146EC
:1008C000284603F06AFF01200346022211460090E9
:1008D000284603F0B6FF01221146284603F027FF01
:1008E000284604F0FEFD00220121284603F082FE86
:1008F00038BD000000BF00BF774890F88100012894
:10090000FAD100BF75488089B0F57A7F03DB0020FB
:100910007349086002E0012071490860704800686E
:1009200010B101285AD15AE001206E4908806B4964
:1009300088889FED6D1ADFED6D0A9FED6D0A40F21C
:10094000D6624FF4827115F0ADFF6A49087008460F
:10095000007855280BDA0846007800EB400066491D
:100960000870002065490870654908702EE06148EC
:100970000078552817DB5F480078AA2813DC5D480B
:100980000078553800EB4000C0F1FF005A4908706C
:1009900058480078553800EB40005849087000204E
:1009A0005749087012E000205349087051480078F8
:1009B000AA3800EB4000C0F1FF00504908704D48D4
:1009C0000078AA3800EB40004D4908704B48027887
:1009D000494801784A48007812F068FD36E03F48FF
:1009E000C08940F24C41884211DB4648007848BB40
:1009F00045480078401C444908700846007804289F
:100A000001D10020087001203E4908701EE03348E3
:100A1000C089B0F57A7F16DB0120324908802F4962
:100A200048889FED311ADFED310A9FED310A40F21F
:100A3000D6624FF4827115F035FF3449086000200A
:100A40003049087002E000202649088000BF244891
:100A50000068012832D12E480068401C2C490860EB
:100A60002948007830B1012807D0022808D003288F
:100A70000CD108E009F010FF08E012F059FD05E084
:100A800012F056FD02E012F053FD00BF00BF1E48F9
:100A9000007830B1012807D0022808D003280CD1F3
:100AA00008E00DF089FA08E012F042FD05E012F0CE
:100AB0003FFD02E012F03CFD00BF09E0084800687D
:100AC00030B900224FF4FA71104800680DF0CCFFE5
:100AD000012016F0C9F815E7380600242402002486
:100AE000AC00002436030024CDCC4C3D00007F43F5
:100AF00000000000B3000024B1000024B200002474
:100B0000B0000024B4000024340300244003002477
:100B1000440300241CB58348008AB0F57A7F6EDD5B
:100B20008148006810B1012868D169E07F4890EDE4
:100B3000000A7F480DF05EFFB7EEC00AB0EE041B5E
:100B400020EE010BB7EEC00B7A4880ED000A774823
:100B500090ED000A7648B8300DF04CFFB7EEC00AB1
:100B6000B0EE041B20EE010BB7EEC00B714880ED18
:100B7000010A6E4890ED000A6F480DF03BFFB7EE9A
:100B8000C00AB0EE041B20EE010BB7EEC00B6948A3
:100B900080ED020A002190ED020ABDEEC00A10EEBF
:100BA000100A00B2CDE90001624890ED010ABDEEE5
:100BB000C00A10EE100A03B25E4890ED000AB1EED2
:100BC000400ABDEEC00A10EE100A02B240F2FE4129
:100BD0005A4801F0CBFC5648D0F8A8005849884242
:100BE0000CDC5348D0F86001884207DC5048D0F84C
:100BF0001802884202DC01204B49086053E053E0B0
:100C00009FED500A4A480DF0F5FEB7EEC00A9FED81
:100C10004E1B20EE010BB7EEC00B464880ED000ADC
:100C20009FED480A4248B8300DF0E4FEB7EEC00A26
:100C30009FED451B20EE010BB7EEC00B3D4880ED4C
:100C4000010A9FED400A3C480DF0D4FEB7EEC00A01
:100C50009FED3D1B20EE010BB7EEC00B354880ED3C
:100C6000020A002190ED020ABDEEC00A10EE100A41
:100C700000B2CDE900012F4890ED010ABDEEC00A97
:100C800010EE100A03B22B4890ED000AB1EE400AB4
:100C9000BDEEC00A10EE100A02B240F2FE41274833
:100CA00001F064FC00BF3CE000201F4908609FED9C
:100CB000250A1F480DF09EFE1E4880ED000A9FED9C
:100CC000210A1B48B8300DF095FE1A4880ED010A44
:100CD0009FED1C0A18480DF08DFE164880ED020AA3
:100CE000002190ED020ABDEEC00A10EE100A00B21B
:100CF000CDE900010F4890ED010ABDEEC00A10EEEB
:100D0000100A03B20B4890ED000AB1EE400ABDEEA6
:100D1000C00A10EE100A02B240F2FE41074801F08C
:100D200025FC1CBD240200242403002430030024DD
:100D300098660024706B002408680024580400247E
:100D4000ECFAFFFF000048C39A9999999999E93FF5
:100D500070B52DED068B88B005460E46B7EE000A3D
:100D6000B0EE408AF84988889FEDF81AF2EE040A3E
:100D70009FEDF70A40F2D6624FF482710DF0BEFC8F
:100D8000B0EE408AF0490888B7EE001AF2EE040A85
:100D9000BAEE040A40F2D6624FF48E710DF0AEFC4A
:100DA000EC4880ED000AE848008840F24C41884257
:100DB00009DCE5480088B0F5966F04DB9FEDE40A96
:100DC000E44880ED000AE0494888B7EE001AF2EEE8
:100DD000040ABAEE040A40F2EF6240F213110DF079
:100DE0008DFCB1EE400ADC4880ED000AD648408810
:100DF00040F24C41884209DCD3484088B0F5966FF8
:100E000004DB9FEDD30AD44880ED000ACE49C888A0
:100E1000B7EE001AF2EE040ABAEE040A4FF4E162E9
:100E20004FF491710DF06AFCCC4880ED000AB1EEF0
:100E3000040A85ED170AC74890ED000A20EE080A5B
:100E400085ED140AC44890ED000A20EE080A85EDED
:100E5000150AC24890ED000A20EE080A85ED160A30
:100E6000B1EE040A86ED170ABA4890ED000A20EEAA
:100E7000080A86ED140AB84890ED000A20EE080A28
:100E800086ED150AB54890ED000A20EE080A86EDB9
:100E9000160AB34B0FCB04AC0FC4B14B10330FCBBE
:100EA0008DE80F00DFEDAFAA002492E295ED140A61
:100EB000D5ED160A04A800EB840090ED001A00EEB0
:100EC000C10AB0EE40AA95ED150AD5ED160A68469E
:100ED00000EB840090ED001A00EE810AB0EE409A1B
:100EE0006AEE0A0A49EE090AB0EE600A15F08EFCB5
:100EF0009D4800EB840080ED000AF0EE490AB0EE58
:100F00004A0A15F05BFA994800EB840080ED000A6C
:100F1000964800EB840090ED000ADFED950AB4EEF0
:100F2000600AF1EE10FA06D19FED920A8F4800EBAD
:100F3000840080ED000ADFED868A34B1012C1DD0DB
:100F4000022C34D0032C64D14AE08B4890ED5E0A29
:100F5000B8EEC00AF0EE408A9FED880AC8EE800A1B
:100F60009FED870A20EE800ADFED7E0A80EE201AD0
:100F7000844800EB840080ED001A4AE0824890ED3E
:100F80005E0AB8EEC00AF0EE408ADFED7C0A88EE19
:100F9000A00ADFED7B0A20EE200ADFED720A80EE68
:100FA000201A784800EB840080ED001A31E0774881
:100FB00090ED5E0AB8EEC00AF0EE408A9FED6F0A2F
:100FC000C8EE800A9FED6E0A20EE800ADFED650A0A
:100FD00080EE201A6B4800EB840080ED001A18E0C8
:100FE0006B4890ED5E0AB8EEC00AF0EE408ADFED85
:100FF000630A88EEA00ADFED620A20EE200ADFED28
:10100000590A80EE201A5F4800EB840080ED001A38
:1010100000BF00BF0DE05B4800EB840090ED000ACC
:10102000DFED570A30EE600A564800EB840080ED91
:10103000000A544800EB840090ED000ADFED500AEE
:10104000B4EEE00AF1EE10FAE5DC0DE04D4800EBFD
:10105000840090ED000ADFED4A0A30EE200A49488C
:1010600000EB840080ED000A464800EB840090ED20
:10107000000ADFED480AB4EEE00AF1EE10FAE5D31B
:10108000404800EB840090ED000ADFED3A0AB4EE30
:10109000E00AF1EE10FA42DD34B1012C0FD0022C3F
:1010A00018D0032C2CD120E03B483349C1F87801FB
:1010B0004013C1F874010020A1F86C0120E036480B
:1010C0003149C1F878014013C1F874010020A1F83A
:1010D0006C0115E030482D49C1F878014013C1F882
:1010E00074010020A1F86C010AE02B482849C1F8DE
:1010F00078014013C1F874010020A1F86C0100BF11
:1011000000BF204800EB840090ED000ADFED1C0AD0
:1011100030EE600A1B4800EB840080ED000A19489D
:1011200000EB840090ED000ADFED110AB4EEE00A56
:10113000F1EE10FA75D234B1012C3CD0022C47D01C
:10114000032C5FD151E029E024020024CDCC4C3D9A
:1011500000000000D8010024DC010024E00100248C
:10116000BC8D0108000010430C620024CC610024F7
:10117000DB0F49C0DB0F49405C5B002400000046E8
:10118000DB0FC940EC610024F85C0024945E00246D
:1011900030600024DB0FC9C00000F7FF4FF41020BF
:1011A000BE49C1F878014720C1F8740141F6FF70CB
:1011B000A1F86C0126E04FF41020B949C1F878017C
:1011C0004720C1F8740141F6FF70A1F86C0119E0E5
:1011D0004FF41020B349C1F878014720C1F87401D9
:1011E00041F6FF70A1F86C010CE04FF41020AE49FD
:1011F000C1F878014720C1F8740141F6FF70A1F8E9
:101200006C0100BF00BFA94800EB840090ED000A0C
:101210005FED250A30EE200AA44800EB840080ED43
:10122000000AA34800EB840090ED000A5FED390A44
:10123000B4EEE00AF1EE10FA0DD21FED3B0A9D4824
:1012400000EB840080ED000A1FED3F0A984800EB98
:10125000840080ED000A974800EB840090ED000ABE
:10126000924800EB8400D0ED000A30EE600A92480C
:1012700000EB840080ED000A0DE08F4800EB840055
:1012800090ED000A5FED420A30EE600A8A4800EBFA
:10129000840080ED000A884800EB840090ED000A8D
:1012A0005FED4C0AB4EEE00AF1EE10FAE5DA0DE07B
:1012B000814800EB840090ED000A5FED4F0A30EEAC
:1012C000200A7D4800EB840080ED000A7A4800EB9C
:1012D000840090ED000A5FED5A0AB4EEE00AF1EEE8
:1012E00010FAE5D9744800EB840090ED000ADFEDB8
:1012F000730AB4EEE00AF1EE10FA1ADD6D4800EB65
:10130000840090ED000A5FED650A30EE600A6C48DB
:1013100000EB840080ED000A654800EB840090ED4E
:10132000000AB1EE400A624800EB840080ED000A3A
:1013300030E0614800EB840090ED000ADFED610AC7
:10134000B4EEE00AF1EE10FA1AD25A4800EB84002B
:1013500090ED000A5FED790A30EE200A584800EB64
:10136000840080ED000A524800EB840090ED000AF2
:10137000B1EE400A4E4800EB840080ED000A09E01F
:101380004C4800EB840090ED000A4D4800EB8400CF
:1013900080ED000A464800EB840090ED000A05F15C
:1013A000600000EB840080ED000A454800EB8400FB
:1013B00090ED000ADFED440A20EE200A5FED970A67
:1013C00020EE200A06F1600000EB840080ED000AA8
:1013D000641C042CFFF66AADDFED3C9A002437E074
:1013E00005F1600000EB840090ED000A5FED9C0ABF
:1013F00029EEA01AC0EE010A9FED350A20EE800A00
:10140000F0EE408A34B1012C0BD0022C10D0032C0A
:101410001CD114E02F48B0EE680AD0F8901188472C
:1014200014E02D48B0EE680AD0F8901188470DE01E
:101430002A48B0EE680AD0F89011884706E028489C
:10144000B0EE680AD0F89011884700BF00BF641C56
:10145000042CC5DBD6ED180AB0EE600A0F48D0F8B0
:1014600090118847D6ED190AB0EE600A0C48D0F802
:1014700090118847D6ED1A0AB0EE600A0948D0F8F4
:1014800090118847D6ED1B0AB0EE600A0648D0F8E6
:101490009011884708B0BDEC068B70BD5C5B0024E2
:1014A000F85C0024945E002430600024EC61002489
:1014B0000C620024CC610024FC610024DB0FC93FD6
:1014C000DC610024DB0FC9BF83F9A244AE47613D54
:1014D00000007042EC540024885600242458002454
:1014E000C059002400B52DED028B83B09FED620A38
:1014F000B0EE408A61480078C8B160484078B0B129
:101500005E48807898B15D48C07880B101205C4920
:10151000087000200090034602464FF400710190CD
:10152000584800F075FA03B0BDEC028B00BD53487B
:10153000007800289FED540A08FE000A534880ED09
:10154000000A4E48407800289FED4F0A08FE000A26
:101550004E4880ED010A4948807800289FED4A0AEC
:1015600008FE000A494880ED020A4448C078002875
:101570009FED450A08FE000A444880ED030A4448EE
:10158000B0F9640101EE100AB8EEC11AF0EE410A9A
:101590003E4890ED001AB0EE410A3D4800F1C4000B
:1015A00015F0D6F93B48B0F9640101EE100AB8EE27
:1015B000C11AF0EE410A354890ED011AB0EE410A29
:1015C0003448C43015F0C4F93348B0F9640101EE71
:1015D000100AB8EEC11AF0EE410A2C4890ED021A3A
:1015E000B0EE410A2C48C43015F0B2F92B48B0F9DE
:1015F000640101EE100AB8EEC11AF0EE410A234868
:1016000090ED031AB0EE410A2448C43015F0A0F959
:10161000224890ED3B0ABDEEC00A10EE100A00B25F
:101620001D4991ED3B0ABDEEC00A10EE101A09B239
:10163000CDE90010174890ED3B0ABDEEC00A10EE50
:10164000100A03B2124890ED3B0ABDEEC00A10EE3C
:10165000100A02B24FF400710A4800F0D9F90020D4
:1016600000900346024640F2FF1101900C4800F042
:10167000CFF900BF57E7000000409C45F10100246E
:10168000F501002498050024000000001C620024DD
:101690005C5B0024F85C0024945E0024306000242D
:1016A000F804002400B585B000215B480EF0D0F8A6
:1016B000594881688847002058490122CDE9010234
:1016C000574B0092CDE9031040F20522911F554877
:1016D00000F046F9002054490122CDE90102504BA7
:1016E0000092CDE9031040F20622D11F4F4800F0CE
:1016F00037F900204E490122CDE90102484B009202
:10170000CDE9031040F2072240F2FF11494800F0F2
:1017100027F9002048490122CDE90102404B0092FF
:10172000CDE903104FF4027240F2FF11434800F07C
:1017300017F939483B49426C904737483B49426C5E
:10174000904735483B49426C904733483B49426C8F
:1017500090473B48304908673A48486700213A4873
:101760000EF076F8384881688847384838490122B1
:101770000192CDE9022104900020364B40F2012273
:10178000511E0090344800F0EBF8344834490122EF
:101790000192CDE90221049000202E4B40F202225A
:1017A000911E00902F4800F0DBF82F482F490122AE
:1017B0000192CDE9022104900020264B40F2032241
:1017C000D11E00902A4800F0CBF82A482A4901226D
:1017D0000192CDE90221049000201E4B4FF40172CA
:1017E000111F0090254800F0BBF817481A49426CB9
:1017F000904715481B49426C904713481C49426C5E
:10180000904711481D49426C90470D480E490867A2
:101810000C48486705B000BDFC530024B800002404
:10182000F8040024EC540024D0000024885600243E
:10183000E80000242458002400010024C05900249A
:10184000510D000881180008745400247801002408
:1018500018010024980500245C5B002490010024FA
:1018600030010024F85C0024A80100244801002471
:10187000945E0024C0010024600100243060002434
:101880000146002008E09FED060A01F1600202EB2C
:10189000800282ED000A401C0428F4DB704700003F
:1018A000000000004A780B7842EA0322A0F86C217D
:1018B000B0F86C21A0F870217047027F5AB1012A5C
:1018C00005D0022A02D0052A46D100BF00BF8A797E
:1018D00080F86A2100BF00F5B270028942814A781F
:1018E0000B7842EA03220281CA788B7842EA03220B
:1018F00012B202804A790B7942EA032212B26FF0E7
:10190000040392FBF3F212B2428002894389A0F5EC
:10191000B270D21AB2F5805F05DDD0F87421521E84
:10192000C0F874210CE0B0F86C21B0F86E31D21A16
:1019300012F5805F04DAD0F87421521CC0F87421CB
:10194000B0F86C31D0F8742103EB4232B0F870314A
:10195000D21AC0F8782100E000BF00BF7047000035
:101960002DE9F84F044615461E460AAF97E8800F4A
:10197000E9B23B4632462046CDF800800CF0ACFF81
:1019800004F5B07424F8A05C1E4860631E48A06390
:101990001E4820630020A080E0802081A072A081EA
:1019A000E08120826061A06120772085E062A4F55B
:1019B000B074002104F5BF70C4F87E11C4F8821120
:1019C000A4F88611607F88B1012802D0022815D1C1
:1019D00013E05246494604F1C4000DF09BF95A4603
:1019E000494604F58A700DF095F907E052464946DC
:1019F00004F1C4000DF08EF900E000BF00BFBDE8A7
:101A0000F88F0000BB180008A518000861E900085D
:101A10002DE9F0438BB081460E4614461D46DDE9A4
:101A20001278029600200390049008200590002070
:101A300006900790089009900A90200A8DF80000FF
:101A4000E0B28DF80100280A8DF80200E8B28DF8A6
:101A50000300380A8DF80400F8B28DF805004FEA4B
:101A600018208DF8060008F0FF008DF807006A4680
:101A700002A9484602F012FE0BB0BDE8F083000058
:101A800010B5024801F09CFD10BD0000040A0024BE
:101A900010B5024801F094FD10BD00008C0900242F
:101AA0000146374A0868904249D0354A18320868DA
:101AB000904244D0324A3032086890423FD0304A97
:101AC0004832086890423AD02D4A60320868904205
:101AD00035D02B4A78320868904230D0284A90326C
:101AE000086890422BD0264AA8320868904226D037
:101AF000244A0868904222D0224A1832086890424C
:101B00001DD0204A30320868904218D01D4A483211
:101B10000868904213D01B4A6032086890420ED089
:101B2000184A78320868904209D0164A90320868FC
:101B3000904204D0134AA8320868904201D1012093
:101B400000E00020B0B10A78103A1823B2FBF3F09D
:101B500000F007020C4B9A5CCA65032805D90A6895
:101B60006FF30902121D8A6503E00A686FF3090228
:101B70008A6503E0086820F0FF008865886D70477B
:101B80001000024010040240208D010810B50268C8
:101B90002B4C0368A34222D0294C14340368A3427F
:101BA0001DD0274C28340368A34218D0244C3C3461
:101BB0000368A34213D0224C50340368A3420ED0D2
:101BC0001F4C64340368A34209D01D4C7834036869
:101BD000A34204D01A4C8C340368A34201D10123E0
:101BE00000E000238BB10378083B1424B3FBF4F12D
:101BF000144B03EB81030366124B8033436601F001
:101C00001F040123A340836618E00378103B1824C7
:101C1000B3FBF4F10C4B9A4204D80B4BA83B9A420D
:101C200000D30831094B03EB81030366074B803374
:101C3000436601F01F040123A340836610BD00002A
:101C40000854025800580258B804024000080240E4
:101C50000179A9B3082940D8204B02689A4222D0C2
:101C60001E4B143302689A421DD01C4B2833026865
:101C70009A4218D0194B3C3302689A4213D0174B42
:101C8000503302689A420ED0144B643302689A4271
:101C900009D0124B783302689A4204D00F4B8C3330
:101CA00002689A4201D1012200E000224AB14A1E94
:101CB0000B4B03EB8202C266094A4032026708E01E
:101CC0000BE04A1E074B03EB8202C266054A403214
:101CD00002674A1E01239340436770470854025825
:101CE0000059025800090240014600208A69D2B911
:101CF0008A6A32B1012A0DD0022A03D0032A10D1F8
:101D00000EE000BFCA6A02F08072B2F1807F00D19B
:101D1000012007E0CA6AB2F1C07F00D1012001E0D2
:101D200000E000BF36E08A69B2F5005F1BD18A6A25
:101D300032B1012A07D0022A03D0032A11D10AE0C6
:101D400000BF01200EE0CA6A02F08072B2F1807F0B
:101D500000D1012006E0CA6AB2F1C07F00D10120A3
:101D600000E000BF16E08A6A32B1012A05D0022ADB
:101D700004D0032A0CD103E000BF00BF012008E01B
:101D8000CA6A02F08072B2F1807F00D1012000E0C7
:101D900000BF00BF7047000030B5384D0468AC424A
:101DA00049D0364D18350468AC4244D0334D3035F7
:101DB0000468AC423FD0314D48350468AC423AD05B
:101DC0002E4D60350468AC4235D02C4D7835046812
:101DD000AC4230D0294D90350468AC422BD0274D11
:101DE000A8350468AC4226D0254D0468AC4222D008
:101DF000234D18350468AC421DD0214D30350468A0
:101E0000AC4218D01E4D48350468AC4213D01C4D6E
:101E100060350468AC420ED0194D78350468AC4288
:101E200009D0174D90350468AC4204D0144DA83544
:101E30000468AC4201D1012400E0002474B10468BC
:101E400063608468402C04D10468A2600468E16087
:101E500012E00468A1600468E2600DE00468636059
:101E60008468402C04D10468A2600468E16003E047
:101E70000468A1600468E26030BD00001000024008
:101E80001004024030B58BB004460D46002001908E
:101E9000029008200390002004904FF480100590D9
:101EA00040000690002007900890607F022802D131
:101EB000A07F00900BE0607F012804D1A07F00F597
:101EC0008070009003E0A07F00F500700090FF207C
:101ED0008DF824008DF825008DF826008DF8270058
:101EE0008DF828008DF829008DF82A0035B1012DD4
:101EF0000BD0022D10D0032D16D111E0FC208DF84F
:101F00002B00012084F8C4000FE0FD208DF82B0089
:101F1000002084F8C40008E0FE208DF82B0004E0C7
:101F2000FB208DF82B0000E000BF00BF09AA694626
:101F300004F1200002F0B2FB0BB030BD10B501215E
:101F40000648FFF79FFF012014F08EFE0121044890
:101F5000FFF798FF012014F087FE10BDC068002431
:101F6000186A002410B500210648FFF78BFF0120F6
:101F700014F07AFE00210448FFF784FF012014F0DA
:101F800073FE10BDC0680024186A00244A780B78DC
:101F900042EA032220F8A22F02888282A2387047E8
:101FA0002DE9F0412DED048B04460D46A8786978A3
:101FB00040EA0126E8780001297940EA211768798A
:101FC000297901F00F0140EA0128B2EE090AB0EECA
:101FD000408AB3EE0E0AF0EE408AB2EE040AB0EE8A
:101FE000409A207F042811D0072802D0082827D142
:101FF00019E09FED620AB0EE408AB3EE0E0AF0EEF1
:10200000408AB2EE040AB0EE409A1AE09FED5C0AF4
:10201000B0EE408A9FED5B0AF0EE408AB2EE040A11
:10202000B0EE409A0DE0B2EE090AB0EE408AB3EE8F
:102030000E0AF0EE408AB2EE040AB0EE409A00E0DA
:1020400000BF00BF2878001184F8C40094ED460A50
:1020500084ED470A1021F0EE480AB1EE480A3046F6
:1020600015F0CCFC84ED460A0C21F0EE680AB1EEC6
:10207000680A384615F0C2FC84ED490A0C21F0EEDE
:10208000490AB1EE490A404615F0B8FC84ED4A0A07
:10209000A87900EE100AB8EE400ABCEEC00A10EEB5
:1020A000100A84F82C01E87900EE100AB8EE400A14
:1020B000BCEEC00A10EE100A84F82D0194ED460A19
:1020C000D4ED470A30EE600ADFED2F0AB4EEE00AE5
:1020D000F1EE10FA05DDD4F83001001FC4F830012C
:1020E00011E094ED460AD4ED470A30EE600ADFEDC8
:1020F000270AB4EEE00AF1EE10FA04D2D4F8300167
:10210000001DC4F8300194ED461AB7EEC11AB0EEC6
:10211000410B9FED1F1B14F0ABFAB7EEC00B84ED23
:10212000480A94ED480ADFED1C0AB4EEE00AF1EE2D
:1021300010FA08DD94ED480ADFED130A30EE600A6C
:1021400084ED480A10E094ED480ADFED140AB4EE7D
:10215000E00AF1EE10FA07D294ED480ADFED0A0A20
:1021600030EE200A84ED480A94F8C40010B901202A
:1021700084F8C400BDEC048BBDE8F081000070421F
:10218000560E494100003442D00FC940D00FC9C09B
:1021900000000000FA211940D00F4940D00F49C07B
:1021A000A030428882814A780B7842EA032242803A
:1021B000CA788B7842EA032212B202804A790B79FC
:1021C00042EA032212B26FF0040392FBF3F212B25E
:1021D000828042888389A038D21AB2F5805F05DDFB
:1021E000D0F8B020521EC0F8B0200CE0B0F8A22009
:1021F000B0F8AC30D21A12F5805F04DAD0F8B02013
:10220000521CC0F8B020A43030F8023CC26803EB86
:102210004232438AD21A4260A43870472DE9F84FFF
:1022200004460D4616461F46DDE90CABDDE90A897A
:10223000E9B243463A462046CDF800900CF04CFBFC
:10224000D83404F8136C184820671848A067184859
:10225000E067184860679FED180A84ED100A9FED4B
:10226000160A84ED110A9FED140A84ED120A9FEDFF
:10227000120A84ED130A9FED100A84ED140A14F873
:10228000BB0CD83C58B1012802D0022809D107E084
:102290005A46514604F1C8000CF03CFD01E000E054
:1022A00000BF00BFBDE8F88F851E0008F5220008BA
:1022B000DB250008A11F0008000000002DE9F04107
:1022C00004460E4617461D460020A034608020803C
:1022D0002061A0712075A060A03C3A46314604F10F
:1022E00050000CF017FD2A46314620460CF012FD36
:1022F000BDE8F0812DE9F0432DED068B8BB005464E
:10230000B0EE40AAB0EE608AF0EE418AB0EE619A7B
:10231000F0EE429AA87F00900020019002900820E1
:102320000390002004904FF4801005904000069028
:10233000002007900890287F042805D0062802D0A6
:10234000072821D110E000BFB3EE040A804880EDD9
:10235000000A9FED800A804880ED000AB2EE040A70
:102360007E4880ED000A10E09FED7D0A784880ED00
:10237000000AB3EE0E0A784880ED000AB2EE040AB5
:10238000764880ED000A00E000BF00BF687FE8B338
:10239000012802D0022838D16FE010206C4991ED5D
:1023A000001A91ED000AF1EE400AB0EE4A0A14F06C
:1023B000FBFB06460C20684991ED001A91ED000ADE
:1023C000F1EE400AB0EE480A14F0EEFB07460C208E
:1023D0009FED641ADFED630AB0EE690A14F0E4FBC6
:1023E00080460C209FED601ADFED5E0AB0EE680AB1
:1023F00014F0DAFB81460C20B1EE041ADFED590A25
:10240000B0EE490A14F0D0FB044672E0FFE710205A
:102410009FED541ADFED530A9FED520A14F0C4FBEE
:1024200006460C204C4991ED001A91ED000AF1EEA0
:10243000400AB0EE480A14F0B7FB07460C209FEDA7
:10244000491ADFED480A9FED470A14F0ADFB8046BC
:102450000C209FED441ADFED430A9FED420A14F071
:10246000A3FB81460C20B1EE041ADFED3E0AB0EE6C
:10247000490A14F099FB04463BE01020344991EDE1
:10248000001A91ED000AF1EE400AB0EE4A0A14F08B
:102490008BFB06460C20304991ED001A91ED000AA5
:1024A000F1EE400AB0EE480A14F07EFB07460C201D
:1024B0002A4991ED001A91ED000AF1EE400AB0EEC2
:1024C000690A14F071FB80460C209FED271ADFED9E
:1024D000250AB0EE680A14F067FB81460C20B1EEC5
:1024E000041ADFED200AB0EE490A14F05DFB044641
:1024F00000BF00BF30128DF82400F0B28DF8250027
:10250000C7F307108DF826003807000E40EA29208F
:102510008DF8270009F0FF008DF82800C4F307109C
:102520008DF829002007000E40EA28208DF82A00A7
:1025300008F0FF008DF82B0009AA694605F120007C
:1025400002F0ACF80BB0BDEC068BBDE8F0830000E8
:102550000002002400003442040200240802002487
:1025600000007042000000000000FA432DE9F04333
:102570008BB081460E4614461D46DDE91278029660
:1025800000200390049008200590002006900790FA
:10259000089009900A90200A8DF80100E0B28DF8A9
:1025A0000000280A8DF80300E8B28DF80200380A0E
:1025B0008DF80500F8B28DF804004FEA18208DF868
:1025C000070008F0FF008DF806006A4602A9484699
:1025D00002F064F80BB0BDE8F08371B52DED020B8D
:1025E0008BB006460BAC0CADB07F00F58070009050
:1025F00000200190029008200390002004904FF4E6
:1026000080100590400006900020079008902078E8
:102610008DF8240060788DF82500A0788DF82600CC
:10262000E0788DF8270028788DF8280068788DF8F4
:102630002900A8788DF82A00E8788DF82B0009AADF
:10264000694606F1200002F029F80EB070BD70470F
:1026500010B5012002F0BAFF10BD10B54FF40050C4
:1026600002F0B4FF10BD10B5042002F0AFFF10BDA2
:1026700010B54FF4007002F0A9FF10BD72B600BF94
:10268000FEE700000748006840F0020005490860C6
:1026900000BF04480838006800F400500028F8D053
:1026A000704700000C48025810B5024802F0F0F9DB
:1026B00010BD00005804002410B5024802F0E8F9EB
:1026C00010BD00005804002410B5024802F0E0F9E3
:1026D00010BD0000F804002410B5024802F0D8F93B
:1026E00010BD0000F804002410B5024802F0D0F933
:1026F00010BD00009805002410B5024802F0C8F98A
:1027000010BD00009805002410B501464A6B08680A
:10271000D0F884004FF6FC74A04340EA82000C68B5
:10272000C4F884000868D0F8840020F47F04088F7F
:1027300044EA00400C68C4F88400886B02440868CE
:10274000D0F888004FF6FC74A04340EA82000C6881
:10275000C4F888000868D0F8880020F4FE04888F48
:1027600044EA00400C68C4F88800C86B02EB4002E1
:102770000868D0F8A0004FF6FC74A04340EA82003D
:102780000C68C4F8A0000868D0F8A00020F4FE048B
:102790004020405A44EA00400C68C4F8A000D1E947
:1027A000104004FB00220868D0F8B0004FF6FC741B
:1027B000A04340EA82000C68C4F8B0000868D0F872
:1027C000B00020F4FE04B1F8480044EA00400C6870
:1027D000C4F8B000D1E9124004FB00220868D0F828
:1027E000AC004FF6FC74A04340EA82000C68C4F8C9
:1027F000AC00D1E9144004FB00220868D0F8F000D6
:102800004FF6FC74A04340EA82000C68C4F8F00064
:102810000868D0F8F00020F47C14B1F8580044EABD
:1028200000400C68C4F8F000886D02EB40020868B4
:10283000D0F8C0004FF6FC74A04340EA82000C6858
:10284000C4F8C0000868D0F8C00020F47C14B1F8C7
:102850005C0044EA00400C68C4F8C0000868D0F886
:10286000C00020F07C5491F8600044EA00600C68DD
:10287000C4F8C0002A4C486B04EB8000C866CC6EDC
:10288000886B04EB80040C670C6FC86B04EBC0040E
:102890004C67D1E9100460434C6F04EB80048C67F3
:1028A000D1E9120460438C6F04EB8004CC67D1E95A
:1028B00014046043CC6F04EB8004802044504458DF
:1028C000886D04EBC004842044508C6EC86D604356
:1028D0008424645804EB8004882044508C6E086E75
:1028E00060438824645804EB80049020445040588E
:1028F0000C4CA04209D99831486840F0200048604B
:10290000032001F89809012010BDCB6E02E00020E1
:1029100018601B1D902040589842F8D80020F3E71B
:1029200000AC0040FCD300402DE9F04105461446C0
:102930001E46D1F804C0BCF1000F0AD1D1F810C076
:10294000D1F808804CEA080CB1F800804CEA8843C2
:102950000BE0D1F810C04CF0804CD1F808804CEA64
:10296000080CD1F800804CEA080391F82080D1F8D7
:102970001CC04CEA086CD1F818804CEA080CD1F85D
:1029800014804CEA080CB1F80C804CEA0847D5F8E2
:1029900068C00CFB06FCD5F8848008EB8C02136041
:1029A000121D1760121D002019E000F1030C14F82D
:1029B0000CC04FEA0C6800F1020C14F80CC048EA95
:1029C0000C4800F1010C14F80CC048EA0C2C14F867
:1029D00000804CEA080CC2F800C0121D001DDFF890
:1029E0001480D1F80CC018F80CC08445DDD8BDE8BF
:1029F000F0810000288D010870B50A480468001DA8
:102A00000568001D0668344454B108220649204672
:102A100007F022FF042204491031284607F01CFF6A
:102A200070BD000000E8F11F8E0300242DE9F0477F
:102A300004460F4690461E46DDF820904FF0000AEF
:102A4000A068802804D1400060654FF0010A75E15C
:102A500000BF94F83400012802D10220BDE8F087BD
:102A6000012084F8340000BF94F8350001287DD19E
:102A7000022084F8350000206065B1492068884252
:102A800049D0AF4918312068884244D0AC49303130
:102A9000206888423FD0AA494831206888423AD00D
:102AA000A74960312068884235D0A549783120682F
:102AB000884230D0A2499031206888422BD0A0496A
:102AC000A8312068884226D09E492068884222D0BA
:102AD0009C491831206888421DD09A4930312068BD
:102AE000884218D0974948312068884213D09549C8
:102AF0006031206888420ED092497831206888423F
:102B000009D0904990312068884204D08D49A8317D
:102B10002068884201D1012000E0002090B12068A7
:102B2000006840F480202168086020680661A06D7C
:102B300000F1080594F85C0000F01F013F20884078
:102B4000286011E02068006848F2200108432168ED
:102B5000086020680661A06D051D94F85C0000F017
:102B60001F01012088402860754900E0E1E02068ED
:102B7000884270D072491831206888426BD0704901
:102B800030312068884266D06D49483120688842DB
:102B900061D06B496031206888425CD068497831E7
:102BA0002068884257D0664990312068884252D0C8
:102BB0006349A831206888424DD062492068884224
:102BC00049D0604918312068884244D05D4930318D
:102BD000206888423FD05B494831206888423AD01B
:102BE000584960312068884235D05649783120688C
:102BF000884230D053499031206888422BD05149C7
:102C0000A8312068884226D04F492068884222D0C7
:102C10004D491431206888421DD04B492831206825
:102C2000884218D048493C312068884213D0464930
:102C30005031206888420ED0434964312068884270
:102C400009D0414978312068884204D03E498C310E
:102C50002068884201D1012000E0002068B14B4685
:102C6000424639462046FFF797F8D4E919104860E4
:102C7000E06E10B1D4E91C104860314920688842E8
:102C800049D02F4918312068884244D02C4930312E
:102C9000206888423FD02A494831206888423AD08B
:102CA000274960312068884235D02549783120682D
:102CB000884230D022499031206888422BD0204968
:102CC000A8312068884226D01E492068884222D038
:102CD0001C491831206888421DD01A4930312068BB
:102CE000884218D0174948312068884213D01549C6
:102CF0006031206888420ED01249783120688842BD
:102D000009D0104990312068884204D00D49A8317B
:102D10002068884206D12068006840F001002168E0
:102D200008600BE02068006840F00100216808603E
:102D300004E04FF4006060654FF0010A50468DE6F4
:102D40001000024010040240085402582DE9F041DE
:102D5000044602F04DFD804614B90120BDE8F08123
:102D600094F83500022808D08020606500BF00205C
:102D700084F8340000BF0120F0E7FE492068884253
:102D800049D0FC4918312068884244D0F949303193
:102D9000206888423FD0F7494831206888423AD0BD
:102DA000F44960312068884235D0F2497831206892
:102DB000884230D0EF499031206888422BD0ED49CD
:102DC000A8312068884226D0EB492068884222D06A
:102DD000E9491831206888421DD0E7493031206820
:102DE000884218D0E44948312068884213D0E2492B
:102DF0006031206888420ED0DF49783120688842EF
:102E000009D0DD4990312068884204D0DA49A831E0
:102E10002068884206D12068006820F001002168FF
:102E2000086005E02068006820F001002168086063
:102E3000D0492068884249D0CE491831206888425C
:102E400044D0CC493031206888423FD0C94948310C
:102E5000206888423AD0C74960312068884235D01E
:102E6000C44978312068884230D0C2499031206806
:102E700088422BD0BF49A8312068884226D0BE495D
:102E80002068884222D0BC491831206888421DD071
:102E9000B94930312068884218D0B7494831206894
:102EA000884213D0B4496031206888420ED0B249BC
:102EB00078312068884209D0AF4990312068884233
:102EC00004D0AD49A8312068884201D1012000E03A
:102ED000002068B12068006820F01E0021680860AA
:102EE0002068406920F0800021684861256806E07C
:102EF0002068006820F00E002168086025689D4960
:102F00002068884270D09B491831206888426BD075
:102F1000984930312068884266D096494831206807
:102F2000884261D093496031206888425CD09149E1
:102F300078312068884257D08E4990312068884285
:102F400052D08C49A831206888424DD08A492068E7
:102F5000884249D0884918312068884244D086493F
:102F60003031206888423FD0834948312068884208
:102F70003AD0814960312068884235D07E49783125
:102F80002068884230D07C499031206888422BD01C
:102F90007949A8312068884226D07849206888423B
:102FA00022D076491431206888421DD073492831D7
:102FB0002068884218D071493C312068884213D07B
:102FC0006E495031206888420ED06C4964312068C7
:102FD000884209D0694978312068884204D067491D
:102FE0008C312068884201D1012000E0002028B106
:102FF000206E006820F48070216E086011E002F0FD
:10300000F7FBA0EB080005280BD920206065032002
:1030100084F8350000BF002084F8340000BF012090
:103020009CE6286800F001000028E8D1514920689A
:10303000884249D04F4918312068884244D04D49D0
:103040003031206888423FD04A4948312068884260
:103050003AD0484960312068884235D045497831B6
:103060002068884230D043499031206888422BD074
:103070004049A8312068884226D03F4920688842CC
:1030800022D03D491831206888421DD03A4930315C
:103090002068884218D0384948312068884213D0C7
:1030A00035496031206888420ED033497831206834
:1030B000884209D0304990312068884204D02E4996
:1030C000A8312068884201D1012000E0002040B1F1
:1030D000A66D94F85C0000F01F013F208840B060AE
:1030E00007E0A76D94F85C0000F01F010120884004
:1030F000786020492068884276D01E4918312068BF
:10310000884271D01B493031206888426CD01949FF
:1031100048312068884267D016496031206888426B
:1031200062D014497831206888425DD011499031CD
:103130002068884258D00F49A8312068884253D06F
:103140000D49206888424FD00B49183120688842C9
:103150004AD0094930312068884245D00649483173
:103160002068884240D004496031206888423BD0C2
:10317000014905E0100002401004024008540258C2
:103180007831206888422FD02549206888422BD08A
:10319000234918312068884226D022492068884275
:1031A00022D020491431206888421DD01D49283181
:1031B0002068884218D01B493C312068884213D0CF
:1031C00018495031206888420ED016496431206871
:1031D000884209D0134978312068884204D01149C7
:1031E0008C312068884201D1012000E0002068B1C4
:1031F000D4E919104860E06E40B1E06E006820F438
:103200008070E16E0860D4E91C104860012084F8E9
:10321000350000BF002084F8340000BF00BF9DE5EA
:10322000A00402400854025870B504460CB90120AD
:1032300070BD94F83500022803D08020606501201D
:10324000F6E7DC492068884249D0DA49183120681D
:10325000884244D0D7493031206888423FD0D54990
:103260004831206888423AD0D2496031206888428B
:1032700035D0D04978312068884230D0CD4990315E
:10328000206888422BD0CB49A8312068884226D0BC
:10329000C9492068884222D0C7491831206888422D
:1032A0001DD0C54930312068884218D0C249483104
:1032B0002068884213D0C0496031206888420ED00F
:1032C000BD4978312068884209D0BB4990312068D7
:1032D000884204D0B849A8312068884201D1012031
:1032E00000E00020F0B3042084F83500B1492068E4
:1032F00088424BD0AF4918312068884246D0AD494A
:1033000030312068884241D0AA494831206888423B
:103310003CD0A84960312068884237D0A54978312F
:103320002068884232D0A3499031206888422DD04D
:10333000A049A8312068884228D09F492068884247
:1033400024D09D491831206888421FD09A493031D5
:10335000206888421AD0984948312068884215D0A0
:10336000954900E020E06031206888420ED0924903
:1033700078312068884209D08F499031206888428E
:1033800004D08D49A8312068884206D120680068A1
:1033900020F001002168086009E12068006820F041
:1033A00001002168086002E182492068884249D012
:1033B000804918312068884244D07E4930312068E5
:1033C00088423FD07B494831206888423AD07949C9
:1033D00060312068884235D076497831206888424B
:1033E00030D074499031206888422BD07149A8317F
:1033F0002068884226D070492068884222D06E49D1
:103400001831206888421DD06B49303120688842CD
:1034100018D0694948312068884213D06649603124
:10342000206888420ED0644978312068884209D0EB
:10343000614990312068884204D05F49A8312068F2
:10344000884206D12068006820F0010021680860E9
:1034500005E02068006820F001002168086020680D
:10346000006820F00E0021680860524920688842F8
:1034700070D050491831206888426BD04D493031A6
:103480002068884266D04B4948312068884261D024
:1034900048496031206888425CD0464978312068CC
:1034A000884257D0434990312068884252D04149E0
:1034B000A831206888424DD03F492068884249D0D1
:1034C0003D4918312068884244D03B49303120685A
:1034D00088423FD038494831206888423AD036493E
:1034E00060312068884235D033497831206888427D
:1034F00030D031499031206888422BD02E49A831F4
:103500002068884226D02D492068884222D02B4945
:103510001431206888421DD028492831206888420B
:1035200018D026493C312068884213D023495031B5
:10353000206888420ED0214964312068884209D031
:103540001E4978312068884204D01C498C3120689B
:10355000884201D1012000E00020D8B1206E00682F
:1035600020F48070216E0860A56D94F85C0000F076
:103570001F01012088406860D4E919104860E06E9E
:1035800040B1E06E006820F48070E16E0860D4E91C
:103590001C104860012084F8350000BF002084F82A
:1035A000340000BF206D10B12046216D88470020F7
:1035B0003EE6000010000240100402400854025889
:1035C0002DE9F84F044600200090FE4800684FF4B3
:1035D0001651B0FBF1FAA66DD4F858803768D8F8C8
:1035E0000090F9492068884249D0F749183120688D
:1035F000884244D0F4493031206888423FD0F249B3
:103600004831206888423AD0EF49603120688842CA
:1036100035D0ED4978312068884230D0EA49903180
:10362000206888422BD0E849A8312068884226D0FB
:10363000E6492068884222D0E4491831206888424F
:103640001DD0E24930312068884218D0DF49483126
:103650002068884213D0DD496031206888420ED04E
:10366000DA4978312068884209D0D84990312068F9
:10367000884204D0D549A8312068884201D1012070
:1036800000E0002000287DD094F85C0000F01F01CD
:10369000082088403840002868D0CB4920688842FC
:1036A00049D0C94918312068884244D0C6493031D0
:1036B000206888423FD0C4494831206888423AD0C7
:1036C000C14960312068884235D0BF4978312068CF
:1036D000884230D0BC499031206888422BD0BA490A
:1036E000A8312068884226D0B8492068884222D074
:1036F000B6491831206888421DD0B449303120685D
:10370000884218D0B14948312068884213D0AF4967
:103710006031206888420ED0AC49783120688842F8
:1037200009D0AA4990312068884204D0A749A8311D
:103730002068884204D12068006800F0040003E09B
:103740002068006800F0080080B12068006820F060
:1037500004002168086094F85C0000F01F01082054
:103760008840B060606D40F00100606594F85C00D6
:1037700000F01F01012088403840E8B392492068DA
:10378000884200E0B7E24BD08F4918312068884268
:1037900046D08D4930312068884241D08A4948312D
:1037A000206888423CD0884960312068884237D000
:1037B000854978312068884232D083499031206829
:1037C00088422DD08049A8312068884228D07F497E
:1037D0002068884224D07D491831206888421FD053
:1037E0007A493031206888421AD0784948312068B7
:1037F000884215D0754900E026E060312068884293
:103800000ED0724978312068884209D06F499031D2
:103810002068884204D06D49A8312068884204D1CC
:103820002068406900F0800002E020680068002005
:1038300050B194F85C0000F01F0101208840B06096
:10384000606D40F00200606594F85C0000F01F01BC
:10385000042088403840E8B35B49206888424BD058
:10386000594918312068884246D05749303120687C
:10387000884241D054494831206888423CD052495E
:1038800060312068884237D04F49783120688842BB
:1038900032D04D499031206888422DD04A49A83114
:1038A0002068884228D049492068884224D0474966
:1038B0001831206888421FD044493031206888423E
:1038C0001AD0424948312068884215D03F496031BA
:1038D000206800E024E088420ED03C49783120681E
:1038E000884209D0394990312068884204D037494C
:1038F000A8312068884204D12068006800F00200E6
:1039000002E020680068002050B194F85C0000F0EC
:103910001F0104208840B060606D40F004006065C5
:1039200094F85C0000F01F01102088403840E8B394
:1039300025492068884251D023491831206888429F
:103940004CD0214930312068884247D01E49483147
:103950002068884242D01C496031206888423DD0AE
:10396000194978312068884238D017499031206849
:10397000884233D01449A831206888422ED0134998
:10398000206888422AD0114918312068884225D001
:103990000E4930312068884220D00C4948312068D7
:1039A00088421BD009496031206800E04DE0884220
:1039B00014D006497831206888420FD003499031ED
:1039C000206805E01C0000241000024010040240A2
:1039D000884203D0FE492068884204D120680068EC
:1039E00000F0080003E02068006800F0040060B305
:1039F00094F85C0000F01F0110208840B06020683F
:103A0000006800F4802080B12068006800F4002085
:103A100028B9206CC8B12046216C884715E0A06CFD
:103A200098B12046A16C88470FE02068006800F438
:103A3000807028B92068006820F0080021680860BC
:103A4000206C10B12046216C884794F85C0000F08F
:103A50001F0120208840384000287DD0DD492068A3
:103A6000884249D0DB4918312068884244D0D9497E
:103A70003031206888423FD0D6494831206888429A
:103A80003AD0D44960312068884235D0D149783164
:103A90002068884230D0CF499031206888422BD0AE
:103AA000CC49A8312068884226D0C949A839206865
:103AB000884221D0C6499039206888421CD0C44928
:103AC00078392068884217D0C14960392068884217
:103AD00012D0BF494839206888420DD0BC493039DE
:103AE0002068884208D0BA4918392068884203D033
:103AF000B7492068884204D12068006800F01000AF
:103B000003E02068006800F0020028B394F85C002D
:103B100000F01F0120208840B06094F83500042890
:103B20002DD12068006820F0160021680860206808
:103B3000406920F0800021684861206C08B9A06CC1
:103B400028B12068006820F008002168086094F817
:103B50005C0000F01F0100E03FE03F208840B060C3
:103B6000012084F8350000BF002084F8340000BF35
:103B7000206D10B12046216D8847BDE8F88F206880
:103B8000006800F4802080B12068006800F4002004
:103B900028B1606C08B32046616C88471DE0E06B7B
:103BA000D8B12046E16B884717E02068006800F430
:103BB000807068B92068006820F0100021680860F3
:103BC000012084F8350000BF002084F8340000BFD5
:103BD000E06B10B12046E16B8847606D00287AD019
:103BE000606D00F00100E8B3042084F835007949E5
:103BF000206888424BD0774918312068884246D0E7
:103C0000744930312068884241D072494831206877
:103C100088423CD06F4960312068884237D06D4976
:103C200078312068884232D06A49903120688842D1
:103C30002DD06849A8312068884228D06449A83925
:103C40002068884223D062499039206888421ED07B
:103C50005F4978392068884219D05D496039206809
:103C6000884200E040E012D0594948392068884233
:103C70000DD0574930392068884208D05449183946
:103C80002068884203D052492068884206D12068C3
:103C9000006820F001002168086005E020680068E5
:103CA00020F001002168086000BF0098401C0090CF
:103CB000504500D905E02068006800F001000028A8
:103CC000F3D100BF2068006800F0010020B103209C
:103CD00084F8350003E00DE0012084F8350000BFD2
:103CE000002084F8340000BFE06C002802D0204699
:103CF000E16C8847D9E138492068884222D03649AA
:103D00001431206888421DD0334928312068884208
:103D100018D031493C312068884213D02E495031A7
:103D2000206888420ED02C4964312068884209D02E
:103D3000294978312068884204D027498C3120688D
:103D4000884201D1012000E000200028D2D0206864
:103D5000056894F85C0000F01F010420884000EA28
:103D60000900D8B305F00400C0B394F85C0000F07B
:103D70001F0104208840C8F8040005F4004080B109
:103D800005F4803030B1A06C0028B3D02046A16C7F
:103D900088478AE1206C0028ACD02046216C8847F7
:103DA00083E105F02000E8BB0A492068884253D02F
:103DB00008491831206888424ED0064930312068C1
:103DC000884249D0034948312068884244D006E0FF
:103DD000B804024010000240085402584FE0B449B1
:103DE00060312068884237D0B149783120688842F4
:103DF00032D0AF499031206888422DD0AC49A831EB
:103E00002068884228D0AB492068884224D0A9493C
:103E10001831206888421FD0A64930312068884276
:103E20001AD000E025E0A34948312068884213D029
:103E3000A0496031206888420ED09E4978312068C0
:103E4000884209D09B4990312068884204D0994922
:103E5000A8312068884206D12068006820F0080058
:103E60002168086005E02068006820F004002168EF
:103E70000860206C10B32046216C884715E194F847
:103E80005C0000F01F010220884000EA0900E8B34E
:103E900005F00200D0B394F85C0000F01F0102208E
:103EA0008840C8F8040005F4004070B105F4803083
:103EB00028B9606C10B12046616C8847F5E0E06B72
:103EC000F0B32046E16B8847EFE005F02000C0BB6F
:103ED0007749206888424ED0754918312068884259
:103EE00049D0734930312068884244D07049483104
:103EF000206888423FD06E496031206888423AD0BD
:103F00006B4978312068884235D000E04EE068493E
:103F10009031206888422ED06549A83120688842B7
:103F200029D064492068884225D062491831206828
:103F3000884220D05F493031206888421BD001E0A0
:103F40006EE02DE05B4948312068884213D0594922
:103F50006031206888420ED0564978312068884206
:103F600009D0544990312068884204D05149A83181
:103F70002068884206D12068006820F0140021687B
:103F8000086005E02068006820F00A0021680860E9
:103F9000012084F8350000BF002084F8340000BF01
:103FA000E06BE8B32046E16B88477EE094F85C0064
:103FB00000F01F010820884000EA090080B305F0E6
:103FC000080068B33A49206888424BD03849183114
:103FD0002068884246D0364930312068884241D036
:103FE00033494831206888423CD0314960312068EB
:103FF000884237D02E4978312068884232D02C4907
:104000009031206888422DD02949A8312068884203
:1040100028D028492068884224D02649183100E059
:1040200043E0206888421DD0224930312068884210
:1040300018D0204948312068884213D01D4960318A
:10404000206888420ED01B4978312068884209D008
:10405000184990312068884204D01649A831206858
:10406000884206D12068006820F01C0021680860A2
:1040700005E02068006820F00E002168086094F8D0
:104080005C0000F01F0101208840C8F804000120F6
:10409000606584F8350000BF002084F8340000BF5C
:1040A000E06C10B12046E16C884700BF65E5000078
:1040B00010000240100402402DE9F041044601F0D6
:1040C00097FB804614B90120BDE8F081FE492068C5
:1040D000884249D0FC4918312068884244D0FA49C6
:1040E0003031206888423FD0F74948312068884203
:1040F0003AD0F54960312068884235D0F2497831AC
:104100002068884230D0F0499031206888422BD016
:10411000ED49A8312068884226D0EC4920688842C1
:1041200022D0EA491831206888421DD0E749303151
:104130002068884218D0E54948312068884213D069
:10414000E2496031206888420ED0E0497831206829
:10415000884209D0DD4990312068884204D0DB498B
:10416000A8312068884201D1012000E00020002809
:1041700073D0606A00B100BF022084F8350000BF30
:10418000002084F8340000BFCF492068884249D01D
:10419000CD4918312068884244D0CB49303120685D
:1041A00088423FD0C8494831206888423AD0C64941
:1041B00060312068884235D0C34978312068884210
:1041C00030D0C1499031206888422BD0BE49A831F7
:1041D0002068884226D0BD492068884222D0BB4949
:1041E0001831206888421DD0B84930312068884293
:1041F00018D0B64948312068884213D0B34960319D
:10420000206888420ED0B14978312068884209D0B0
:10421000AE4990312068884204D0AC49A83120686A
:10422000884206D12068006820F0010021680860FB
:1042300005E02068006820F00100216808600DE0BA
:1042400001F0D6FAA0EB0800052807D92020606508
:10425000032084F83500012036E769E02068006813
:1042600000F001000028EBD120680568984805405F
:10427000D4E9020108432169084361690843A1693F
:104280000843E1690843216A08430543606A04283A
:1042900003D1D4E90B01084305436068292802D300
:1042A00060682E2817D960683F2802D360684228CA
:1042B00011D96068472802D3606848280BD9606824
:1042C0004F2802D36068522805D96068742804D347
:1042D0006068772801D8012000E0002008B145F48B
:1042E0008015206805602068456925F00705606A2B
:1042F0000543606A04280DD1A06A0543E06A48B10D
:104300002046FDF7F1FC28B140206065012084F8CB
:104310003500D9E6206845612046FDF7C1FB064619
:1043200094F85C0000F01F013F208840B0609EE0E0
:1043300068492068884222D0664914312068884242
:104340001DD0644928312068884218D061493C3129
:104350002068884213D05F495031206888420ED0CF
:104360005C4964312068884209D05A497831206814
:10437000884204D057498C312068884201D10120FD
:1043800000E00020E0B353492068884222D0514920
:104390001431206888421DD04E4928312068884257
:1043A00018D04C493C312068884213D049495031DB
:1043B000206888420ED0474964312068884209D07D
:1043C000444978312068884204D042498C312068C1
:1043D000884201D1012000E0002000B100BF02208E
:1043E00084F8350000BF002084F8340000BF206846
:1043F000056839480540A068402802D1102106E030
:104400002EE0A068802801D1C10100E00021E06811
:1044100041EAD001206941EAD001606941EAD00156
:10442000A06941EAD001E06941EAD001206A41EA8D
:10443000101005432068056026492068401A1421A1
:10444000B0FBF1F08000E0652046FDF729FB074650
:1044500094F85C0000F01F0101208840786006E0BD
:1044600040206065032084F8350001202CE61649C1
:10447000206888427AD0144918312068884275D063
:10448000114930312068884270D00F494831206886
:1044900088426BD00C4960312068884266D00A4956
:1044A00078312068884261D007499031206888427D
:1044B0005CD00549A8312068884257D0034920685C
:1044C000884253D0014909E0100002401004024024
:1044D0003F8010FE085402580F00FEFF183120687C
:1044E000884243D03749206888423FD03549183147
:1044F000206888423AD0334930312068884235D02C
:10450000304948312068884230D02E4960312068D7
:1045100088422BD02B4978312068884226D02A49FE
:104520002068884222D028491431206888421DD052
:10453000254928312068884218D023493C31206819
:10454000884213D020495031206888420ED01E493D
:1045500064312068884209D01B497831206888423C
:1045600004D019498C312068884201D1012000E033
:10457000002000B32046FDF709FBA068802801D188
:10458000002060602079216E0860D4E9191048602D
:10459000606860B16068082809D82046FDF758FBBC
:1045A0000020E16E0860D4E91C10486003E00020A0
:1045B000E0662067606700206065012084F83500B0
:1045C000002081E5400402400854025870B50446BA
:1045D00001F00EF906462546681C10B10448007823
:1045E000054400BF01F004F9801BA842FAD370BD56
:1045F0001800002430B5034693F89840012C01D0F0
:10460000022C3ED11868806D084030B91868C06D22
:1046100040F001001D68E8650EE01868806D0840F4
:10462000884206D11868C06D40F002001D68E86538
:1046300002E003201D68E86501F4007030B11868DD
:10464000D0F8E00010431D68C5F8E00001F4806078
:1046500030B11868D0F8E40010431D68C5F8E400D4
:1046600000BF1868406D0B4D0D4028431D686865FC
:104670000948006840EA9170074D286000BF00209B
:1046800030BDD3F89C0040F00200C3F89C0001202C
:10469000F6E70000FFFFCF3F14A800402DE9F041EE
:1046A00004460E461746706800B900E000BF94F853
:1046B0009800022832D12068D0F8C00000F07C5069
:1046C00040B9D4F89C0040F02000C4F89C000120C0
:1046D000BDE8F0812068D0F8C40000F4001038B1C3
:1046E000D4F89C0040F40070C4F89C000120EFE76F
:1046F0002068D0F8C400C0F304452B463A46314642
:104700002046FEF711F90120A8402168C1F8D00029
:104710000120A840C4F894000020D9E7D4F89C00F8
:1047200040F00800C4F89C000120D1E7704710B5A4
:10473000034601B900E000BF93F89800012824D196
:1047400051B91868D0F8F00020F07C5040EA0260BF
:104750001C68C4F8F00016E001290AD11868D0F8E6
:10476000A00020F0FE4040EA02601C68C4F8A000EF
:1047700009E01868D0F8B00020F0FE4040EA02607E
:104780001C68C4F8B000002010BDD3F89C0040F0B5
:104790000400C3F89C000120F6E7F0B5024692F849
:1047A0009860012E01D0022E43D1C868072800D19D
:1047B00000BF086818BBC868072800D000BFC868D9
:1047C00007280BD1088A4FF0605747EA0040CF69AD
:1047D00040EA07208F6940EA07030AE0087A800769
:1047E0000F7B40EAC7600F8A40EA07404F6940EA02
:1047F0000703D76E486807EB8004236017E0C8689A
:10480000072800D000BF0F7B086940EA4773C868DB
:10481000072801D18D6903E00F7A486940EA87755E
:10482000176F486807EBC0042360241D2560002033
:10483000F0BDD2F89C0040F00200C2F89C000120BC
:10484000F6E770B50446049D94F8980001280AD153
:10485000080140EA820040EA430028432668C6F87F
:104860008000002070BDD4F89C0040F00400C4F823
:104870009C000120F6E77047704700002DE9F043E7
:1048800004460D469C46002394F89880B8F1020F28
:104890007ED1402D3FD12068D0F8A00000F4FE006A
:1048A00040B9D4F89C0040F02000C4F89C000120DE
:1048B000BDE8F0832068D0F8A40000F07F0038B98C
:1048C000D4F89C0040F48070C4F89C000120EFE70D
:1048D0002068D0F8A400C0F305232068D0F8A40015
:1048E000C0F3006080B12068D0F8A0004FF001094B
:1048F000B9EBD07F08D12068D0F8A000C0F3064003
:1049000003F1010900EA0903606C5843D4F874907C
:1049100009EB800153E0412D40D12068D0F8B00070
:1049200000F4FE0038B9D4F89C0040F02000C4F830
:104930009C000120BCE72068D0F8B40000F07F00A4
:1049400038B9D4F89C0040F48070C4F89C00012071
:10495000AEE72068D0F8B400C0F305232068D0F893
:10496000B400C0F3006080B12068D0F8B0004FF010
:104970000109B9EBD07F08D12068D0F8B000C0F3AE
:10498000064003F1010900EA0903E06C584300E026
:1049900072E0D4F8789009EB800110E0206DA84215
:1049A00007D8D4F89C0040F02000C4F89C000120F7
:1049B0007EE7606D6843D4F87C9009EB800108685D
:1049C00000F080405060506820B90868C0F38A4009
:1049D000106003E0086820F060401060086800F094
:1049E00000509060086800F000401061091D0888C0
:1049F00080B2D0610868C0F30340D060086800F45A
:104A000080105061086800F4001090610868C0F3DD
:104A1000066010620868C00F5062091D0F4600262C
:104A200003E0B85D0CF80600761CDFF85C90D068F7
:104A300019F80000B042F4D8402D03D12068C0F826
:104A4000A83017E0412D03D12068C0F8B83011E03C
:104A5000202D06D20120A840D4F80090C9F8980073
:104A600008E005F01F09012000FA09F0D4F80090D1
:104A7000C9F89C0000201BE7D4F89C0040F0080017
:104A8000C4F89C00012013E7288D0108704700003E
:104A90002DE9F04F8DB00446EF4800688707EE48D7
:104AA000001D006807EA80772068006D00F47048F8
:104AB0002068406D00EA08082068006D00F00F09CA
:104AC0002068406D00EA09092068006D00F0F00AD6
:104AD0002068406D00EA0A0A2068006D00F0715BF2
:104AE0002068406D00EA0B0B2068006D00F06070DC
:104AF0000C902068406D0C9908400C902068456D22
:104B00002068066DC5F3002070B1C6F3002058B1CF
:104B100000BF4FF48070216808650020CE4908600E
:104B200000BF2046FFF7B2FFC5F38020C8B1C6F32F
:104B30008020B0B12068D0F8DC000A902068D0F85E
:104B4000E4000A9908400A9000BF4FF48060216891
:104B500008650020C049086000BF20460A9900F09F
:104B6000E0FC67B100BFBD48384021680865B80F58
:104B7000B949086000BF39462046FFF7D7FDB8F1B4
:104B8000000F0ED000BFB54808EA00002168086594
:104B90004FEA9870B049086000BF4146204600F0D7
:104BA000C2FCB9F1000F0ED000BFAC4809EA00000A
:104BB000216808654FEA9970A749086000BF494617
:104BC000204600F0DFFBBAF1000F0ED000BFA34873
:104BD0000AEA0000216808654FEA9A709E49086059
:104BE00000BF5146204600F07BFCC5F3C02070B1E9
:104BF000C6F3C02058B100BF4FF4006021680865BB
:104C000000209549086000BF204600F08DFCC5F3E8
:104C10004020C8B1C6F34020B0B12068D0F8D80019
:104C20000B902068D0F8E0000B9908400B9000BF73
:104C30004FF400702168086500208749086000BFB4
:104C400020460B9900F06EFCC5F3C04070B1C6F36E
:104C5000C04058B100BF4FF4002021680865002013
:104C60007D49086000BF204600F08AFBC5F3004084
:104C700070B1C6F3004058B100BF4FF480302168D6
:104C8000086500207449086000BF204600F048FC19
:104C9000C5F3804070B1C6F3804058B100BF4FF4F7
:104CA00080202168086500206B49086000BF20460D
:104CB00000F035FCC5F3404088B1C6F3404070B108
:104CC00000BF4FF400302168086500206249086089
:104CD00000BFD4F89C0040F08000C4F89C000C9801
:104CE00070B100BF5D490C980840216808650C98B8
:104CF000800F5949086000BF20460C99FFF7BCFDA2
:104D0000BBF1000F10D000BF54480BEA000021682F
:104D100008654FEA9B705049086000BFD4F89C00BA
:104D200040EA0B00C4F89C004D49206888427DD1C0
:104D30006068806800F00300002877D06068006A2F
:104D400000F00F0009906068406A099908400990D6
:104D50006068006A00F0300008906068406A089956
:104D6000084008906068006A00F4C07007906068AE
:104D7000406A0799084007906068006A00F4FC40A8
:104D800006906068406A0699084006906068006A6C
:104D900000F4F02005906068406A0599084005908D
:104DA0006068406A02906068006A0190099830B1BA
:104DB0000998616808622046099900F0ADFB0898DF
:104DC00030B10898616808622046089900F0A6FB97
:104DD0000298C0F38010A0B10198C0F3801080B198
:104DE0006068C06B000C04906068C06B00F03F000E
:104DF00003904020616808622046DDE9032100F04D
:104E00008CFB079830B107986168086220460799C3
:104E100000F081FB069840B1069861680862D4F8FA
:104E20009C0006990843C4F89C0000E00AE005983D
:104E300040B1059861680862D4F89C000599084360
:104E4000C4F89C00D4F89C0010B12046FFF713FD75
:104E50000DB0BDE8F08F000010A80040FFFFCF3F6D
:104E600000A0004070B594B004464C22B34901A89C
:104E7000FBF7DFFA14B9012014B070BDB049206807
:104E8000884203D1206800F580706060A068B0F5AA
:104E9000407F00D100BF206C00B100BFA06C00B10A
:104EA00000BF206D00B100BF206E00B100BFD4E98B
:104EB0001710084400B100BF94F8980028B90020EA
:104EC00084F89900204600F03DF92068806920F0C0
:104ED00010002168886100F08BFC05460EE000F0B0
:104EE00087FC401B0A2809D99834606840F001000B
:104EF0006060032004F898090120BDE720688069FC
:104F000000F008000828EAD02068806940F001001D
:104F10002168886100F06CFC05460EE000F068FC3A
:104F2000401B0A2809D99834606840F0010060608D
:104F3000032004F8980901209EE72068806900F0AA
:104F400001000028EAD02068806940F00200216852
:104F50008861207C012806D12068806920F040000B
:104F60002168886105E02068806940F04000216880
:104F70008861607C012806D12068806940F4804007
:104F80002168886105E02068806920F480402168FC
:104F90008861A07C012806D12068806920F48050B7
:104FA0002168886105E02068806940F480502168AC
:104FB00088612068806920F44070A16808432168F6
:104FC00088612068806920F0A400216888612068D9
:104FD000006920F0100021680861E068012806D10E
:104FE0002068806940F004002168886120E0E06862
:104FF000F0B1E068022815D02068806940F0800098
:10500000216888612068006940F01000216808610B
:10501000E06803280CD12068806940F020002168F6
:10502000886105E02068806940F02000216888617F
:10503000207E401E4106E069401E41EA0020216AB0
:10504000491E0843A18A491E40EA01402168C861FF
:10505000A068B0F5407F0FD1A06A401EE16A491EEA
:1050600040EA0121206B401E41EA0011A08C401E45
:1050700041EA00402168C860206E38B12068D0F84D
:10508000C000616E08432168C1F8C000D4E9171060
:10509000084460B12068D0F8C80020F0070001AAD9
:1050A000A16E52F8211008432168C1F8C800206C95
:1050B00060B12068D0F8BC0020F0070001AA616C44
:1050C00052F8211008432168C1F8BC00A06C68B1F7
:1050D0002068D0F8BC0020F0700101AAE06C52F802
:1050E000200041EA00102168C1F8BC00206D68B1C1
:1050F0002068D0F8BC0020F4E06101AA606D52F88D
:10510000200041EA00202168C1F8BC000C49206859
:10511000884205D16068806820F00300616888607B
:10512000002044F8940FA06001202071943C204698
:10513000FDF7EAFA064630469EE60000388D010883
:1051400000A0004010B5B6B00446142130A8FBF70B
:1051500089F9B82102A8FBF785F9824920688842BD
:1051600051D14FF400410020CDE9021048031D90B9
:1051700002A801F015FE08B1FDF780FA7A48006830
:10518000401C794908600846006801280DD100BF1D
:105190007648006840F480707449086008460068EA
:1051A00000F48070019000BF00BF00BF6F480C3852
:1051B000006840F008006D490C3908600846006836
:1051C00000F00800019000BF00BF032030900220D3
:1051D00031900020329033900920349030A96448F7
:1051E00000F002FA00220521132000F00BFC13202E
:1051F00000F0F4FB00220521152000F003FC15202F
:1052000000F0ECFBABE05B492068884251D14FF4E1
:1052100000410020CDE9021048031D9002A801F0D2
:10522000BFFD08B1FDF72AFA4F480068401C4E49FF
:1052300008600846006801280DD100BF4B4800688F
:1052400040F48070494908600846006800F48070A6
:10525000019000BF00BF00BF44480C38006840F018
:10526000020042490C3908600846006800F002005C
:10527000019000BF00BF60203090022031900020DC
:10528000329033900920349030A93B4800F0ACF9BB
:1052900000220521142000F0B5FB142000F09EFB35
:1052A00000220521162000F0ADFB162000F096FB31
:1052B00055E032492068884251D14FF40041002026
:1052C000CDE9021048031D9002A801F069FD08B164
:1052D000FDF7D4F924480068401C234908600846BB
:1052E000006801280DD100BF2048006840F480709C
:1052F0001E4908600846006800F48070019000BFF5
:1053000000BF00BF19480C38006840F0080017497A
:105310000C3908600846006800F00800019000BFE2
:1053200000BF4FF440503090022031900020329066
:1053300033900520349030A90D4800F055F9002233
:1053400005219F2000F05EFB9F2000F047FB00221C
:105350000521A02000F056FBA02000F03FFB36B056
:1053600010BD000000A000400C000024EC440258D6
:10537000000C025800A400400004025800D4004071
:105380007047000030B58DB004460D4601AB03AA4E
:1053900040212046FFF772FA43492068884238D1FD
:1053A0000398A0F2053020B1012811D002282FD196
:1053B0001FE03E48008830B901203C49088001A91F
:1053C0003B48FCF7E3FD01A93948FCF7E9FE1FE083
:1053D0003648408838B901203449488001A934480A
:1053E000B830FCF7D3FD01A93148B830FCF7D8FE3E
:1053F0000EE02E48808830B901202C49888001A910
:105400002C48FCF7C3FD01A92A48FCF7C9FE00BFE0
:1054100000BF2949206888421FD10398A0F20520C7
:1054200030B1012809D002280CD0032814D10EE095
:1054300001A92248FCF741FA0EE001A92048FCF737
:105440003CFA09E001A91F48FCF737FA04E001A97A
:105450001D48FCF732FA00BF00BF1C492068884293
:105460001FD10398A0F2012030B1012809D00228F1
:105470000CD0032814D10EE001A91548FCF71DFA41
:105480000EE001A91348FCF718FA09E001A9124837
:10549000FCF713FA04E001A91048FCF70EFA00BF6C
:1054A00000BF0DB030BD000000A00040A4000024EB
:1054B000986600240868002400A40040EC540024EE
:1054C0008856002424580024C059002400D40040E9
:1054D0005C5B0024F85C0024945E002430600024AF
:1054E0007047014691F8980001280CD1022081F8FC
:1054F00098000868806920F001000A689061002027
:10550000C1F89C007047D1F89C0040F00400C1F83D
:105510009C000120F6E7704770477047704770475E
:1055200070477047704770477047000001280ED1E0
:105530002149097800293ED1204AA2F86C11C2F80D
:105540007411C2F8781101211B4A117033E004284C
:105550000ED11949497871BB0021194AA2F86C1182
:10556000C2F87411C2F878110121134A517022E077
:10557000B0F5005F0ED110498978E1B90021114AD8
:10558000A2F86C11C2F87411C2F8781101210A4A0C
:10559000917010E0B0F5007F0DD10749C97851B97D
:1055A0000021094AA2F86C11C2F87411C2F87811EE
:1055B0000121014AD1707047F10100245C5B002495
:1055C000F85C0024945E00243060002410B504468A
:1055D00004480068204020B1024804602046FFF7DC
:1055E000A5FF10BD88000058F8B502460023714D94
:1055F000DAE001279F400E6806EA0704002C7AD003
:105600000E7906F00306012E04D00E7906F003068B
:10561000022E13D190685F000326BE40B0435F00A6
:10562000CE68BE4030439060506801269E40B04333
:105630000E79C6F300169E40304350600E7906F096
:105640000306032E07D10E7906F00306032E0CD1B4
:105650008E68012E09D0D0685F000326BE40B0439B
:105660005F008E68BE403043D0600E7906F00306BE
:10567000022E13D1DF0802F1200656F827005E073C
:10568000F70E0F26BE40B0435F07FF0E0E69BE4007
:105690003043DF0802F1200646F8270010685F005B
:1056A0000326BE40B0430E7906F003065F00BE40FD
:1056B000304310604E6806F44036002E73D000BFB1
:1056C0003D4E366846F002063B4F3E603E46366829
:1056D00006F00206009600BF00BF384E9F0856F83D
:1056E00027009E07370F0F26BE40B043344EB2420C
:1056F00002D1002629E056E0324EB24201D1012605
:1057000023E0314EB24201D102261EE02F4EB242BA
:1057100001D1032619E02E4EB24201D1042614E035
:105720002C4EB24201D105260FE02B4EB24201D1E0
:1057300006260AE0294EB24201D1072605E0284E8E
:10574000B24201D1092600E00A269F073F0FBE4062
:1057500030431A4E9F0846F827004FF0B046306895
:10576000A0434E6806F4801606B120434FF0B046C1
:1057700030607068A0434E6806F4001606B12043FE
:105780004FF0B04670606868A0434E6806F400367B
:1057900006B1204368602868A0434E6806F480364E
:1057A00006B1204328605B1C0E68DE40002E7FF4AB
:1057B00020AFF8BD80000058F44402580804005897
:1057C000000002580004025800080258000C025859
:1057D000001002580014025800180258001C025809
:1057E000002402580AB1816101E00B048361704713
:1057F000014800687047000010000024034800685A
:1058000003490978084401490860704710000024E2
:105810001800002410B5032000F032F902F034FB28
:1058200010490968C1F303210F4A515C01F01F01BF
:1058300020FA01F40B48006800F00F001146085CE4
:1058400000F01F0024FA00F00849086008480460CE
:105850000F2000F00FF808B1012010BD00F0A6F8ED
:105860000020FAE718440258AC8D010820000024FB
:105870001C00002470B58AB00446102C0AD2002205
:105880002146192000F0BEF8192000F0A7F81948A9
:10589000046002E001200AB070BD00BF1648006835
:1058A00040F00100144908600846006800F001005B
:1058B000009000BF00BF01A902A802F065FA02F043
:1058C000D1FA45000D48B5FBF0F0461E0C480D49D5
:1058D000086040F2E7310B48C16046600021016179
:1058E000816003F007FC18B9064803F077FCD2E7A3
:1058F0000120D0E714000024F044025840420F0079
:10590000000001407C0A00244178154A11601449C6
:105910000831096821F00101114A08321160121F93
:1059200041681160017B0907C27A41EA0261827A0B
:1059300041EAC241427B41EA8241827B41EA4241E3
:10594000C27B41EA0241427A41EA0221027A41EAFB
:10595000420102781143024A083211607047000088
:1059600098ED00E0BFF35F8F0548006820F48030B9
:105970000349086000200249703108607047000048
:1059800024ED00E040F00101074A1160064970393A
:10599000096841F48031044A703A1160BFF34F8FB7
:1059A000BFF36F8F7047000094ED00E008B500BFB3
:1059B0000948006840F0020007490860084600688E
:1059C00000F00200009000BF00BF00220F21901ED7
:1059D00000F018F808BD0000F444025801460846DB
:1059E00000280DDB00BF00BF00F01F0301229A401A
:1059F00043099B0003F1E023C3F8002100BF00BF6F
:105A000000BF70472DE9F05F80460D46164610F046
:105A1000B9FC074639462A46334601F00700C0F173
:105A2000070ABAF1040F02D94FF0040A01E0C0F1ED
:105A3000070AD14600F1040ABAF1070F02D24FF06B
:105A4000000A01E0A0F1030AD4464FF0010A0AFA65
:105A500009FAAAF1010A0AEA020A0AFA0CFA4FF054
:105A6000010B0BFA0CFBABF1010B0BEA030B4AEA3F
:105A70000B042146404610F08DFCBDE8F09F00006D
:105A800000BF00F00702064B19684FF6FF031940EC
:105A9000044B0B4343EA0221014B196000BF7047DE
:105AA0000CED00E00000FA0501460A680120C1F88B
:105AB000D804002081F8CC04906940F00060906127
:105AC000506D024B184350650020704703000010D2
:105AD000704702461068416200207047F0B50346E7
